S01100005457492D736C6176652E73726563D7
S113000033C0000044C0000042C0000040C00000F3
S11300103EC000003CC000003AC0000038C00000F0
S113002036C0000034C0000032C0000030C0000000
S11300302EC000002CC000002AC0000028C0000010
S113004026C0000024C0000022C0000020C0000020
S11300501EC000001CC000001AC0000018C0000030
S113006016C0000014C0000011241FBECFEFD8E05A
S1130070DEBFCDBF11E0A0E0B1E0EAE5F1E002C0EF
S113008005900D92A030B107D9F757D064C0B8CF0E
S11300901092B90088E48093B800089587E28093B1
S11300A0BA00089594EA9093BC00ECEBF0E09081E0
S11300B09923ECF79091B900987F983011F0903122
S11300C0A1F48093BB0084E88093BC00ECEBF0E0E7
S11300D080818823ECF79091B900987F983139F0AA
S11300E081E0903429F480E0089581E0089580E06F
S11300F0089584E98093BC00ECEBF0E0808184FDFA
S1130100FDCF08958093BB0084E88093BC00ECEBA2
S1130110F0E080818823ECF79091B900987F81E02A
S1130120983209F480E00895CF93C82F8EE4BADFA3
S11301308C2FE8DFDEDFCF910895AADFAFDF83E6FF
S1130140F3DF2FEF87EA91E6215080409040E1F7FA
S10D015000C00000F4CFF894FFCFC4
S9030000FC
