S01100005457492D736C6176652E73726563D7
S113000033C0000044C0000042C0000040C00000F3
S11300103EC000003CC000003AC0000038C00000F0
S113002036C0000034C0000032C0000030C0000000
S11300302EC000002CC000002AC0000028C0000010
S113004026C0000024C0000022C0000020C0000020
S11300501EC000001CC000001AC0000018C0000030
S113006016C0000014C0000011241FBECFEFD8E05A
S1130070DEBFCDBF11E0A0E0B1E0E2E7FBE002C0EB
S113008005900D92AE35B107D9F72BD270C5B8CF14
S11300901092B90088E48093B800089587E28093B1
S11300A0BA00089584E48093BC00ECEBF0E0808116
S11300B08823ECF7089584EC8093BC00ECEBF0E02B
S11300C080818823ECF78091BB0008958AB1806F0A
S11300D08AB98AB18B608AB9209A0895CF93DF9345
S11300E000D000D0CDB7DEB719821A821B821C82E1
S11300F0FE01319627E030E090E061E0AC01022E91
S113010002C0559547950A94E2F740FD608321505B
S1130110310931962330310589F78BB18F708BB952
S11301202BB1498130E8439FC00111249A8130E406
S1130130939FA0011124482B422B9B8180E2989F1E
S113014090011124242B9C8130E1939FC001112440
S1130150822B8BB95B9A85E08A95F1F700005B9856
S113016035E03A95F1F700000F900F900F900F9043
S1130170DF91CF910895CF93C82F5898599A5B98DF
S1130180ADDF8C2F8295807FA9DFCF910895CF9327
S1130190C82F589859985B98A1DF8C2F8295807F3F
S11301A09DDFCF91089557985998589A5B9A85E0A6
S11301B08A95F1F7000089B15B9895E09A95F1F77B
S11301C000005B9A95E09A95F1F700005B9895E042
S11301D09A95F1F7000088234CF35898579A08959C
S11301E02FEF81EE94E0215080409040E1F700C071
S11301F0000059985B98589880E370DF25E32A95AE
S1130200F1F7000080E36ADF8FE193E00197F1F7F3
S113021000C0000080E362DF8FE391E00197F1F713
S113022000C0000088E25ADFBEDF88E2B0DFBBDF37
S113023088E0ADDFB8DF81E0AADFB5DF86E0A7DFC5
S1130240B2DF8CE0A4CF089541DFCADF2FEF81EE47
S113025094E0215080409040E1F700C000000895F0
S11302600F931F93CF93DF9300D0CDB7DEB78C01EC
S11302701A821982E981FA81E80FF91F80818823A3
S113028099F091DFE981FA81E00FF11F808173DF3A
S113029089819A8101969A838983E981FA81E00FA1
S11302A0F11F80818111EDCF0F900F90DF91CF91DD
S11302B01F910F910895DF92EF92FF920F931F9376
S11302C0CF93DF93CDB7DEB7AF970FB6F894DEBF09
S11302D00FBECDBF182FD62E072F842F790120E211
S11302E030E23A83298320E230E03C832B8396E199
S11302F0E4E1F1E0DE015A9601900D929A95E1F75E
S11303004F3F31F04AE0BE016F5F7F4F90E016D15E
S113031060E071E08D2D902F08D1892B09F4ACC0D9
S113032060E071E0C70101D1892B31F40F2EF9E2AD
S1130330EF2EF1E0FF2EF02DCE014A969F938F937E
S1130340FF92EF9249979F938F930F93DF9285E0EB
S113035091E09F938F931F9285E18F93CE01059631
S11303609F938F930ED16EE071E08D2D902FDDD091
S11303700FB6F894DEBF0FBECDBF892BA9F4CE0112
S11303804A969F938F938BE091E09F938F931F9254
S113039085E18F93CE0105969F938F93F2D00FB68C
S11303A0F894DEBF0FBECDBF1230A9F018F411309F
S11303B031F034C01330D9F0143029F12FC080E863
S11303C0E6DE9FEF20E732E0915020403040E1F735
S11303D000C0000023C080ECDADE8FEF90E722E05B
S11303E0815090402040E1F700C0000017C084E92C
S11303F0CEDE3FEF80E792E0315080409040E1F75D
S113040000C000000BC084EDC2DE2FEF30E782E0B5
S1130410215030408040E1F700C00000CE01059635
S11304201FDF9FEF20E732E0915020403040E1F79A
S113043000C0000046C0CE014A969F938F9389E284
S113044091E09F938F939E012F5F3F4F3F932F9394
S11304509F938F9385E091E09F938F931F9285E103
S11304608F93CE0105969F938F938BD00FB6F894FC
S1130470DEBF0FBECDBF98CF60E071E0C70155D09D
S1130480892BC9F2CE014A969F938F93FF92EF92E4
S113049049979F938F9389E291E09F938F9385E08F
S11304A091E09F938F931F9285E18F93CE010596E0
S11304B09F938F9366D00FB6F894DEBF0FBECDBF67
S11304C073CFAF960FB6F894DEBF0FBECDBFDF91EA
S11304D0CF911F910F91FF90EF90DF900895EBCE95
S11304E00895B2DED5DDDADDC9EBD0E020E031E0FD
S11304F04FEF6AE271E081E0F2DFD4DDDCDD20E081
S113050031E0482F67E371E082E0E9DF488120E0D1
S113051031E06EE371E083E0E2DF20E031E04FEFB1
S11305206EE471E084E0DBDFE1CFFB01DC018D915F
S1130530019080190110D9F3990B0895BB274A3013
S113054031F4992322F4BDE2909581959F4F01C027
S1130550BB27FB015527AA27880F991FAA1FA41799
S113056010F0A41B83955051B9F7A05DAA3308F08D
S1130570A95DA193009779F7B111B1931192CB01C1
S113058015C2AEE0B0E0E6ECF2E0C8C20D891E8907
S11305908F89988D26E02C831A83098397FF02C0E4
S11305A080E090E801979E838D83AE01455E5F4FA6
S11305B0698D7A8DCE01019611D04D815E8157FDF2
S11305C00AC02F813885421753070CF49A01F801A9
S11305D0E20FF31F10822E96E4E0BCC2ABE0B0E061
S11305E0E3EFF2E08DC26C017B018A01FC0117820A
S11305F01682838181FFBFC1CE0101963C01F601C1
S11306009381F70193FD859193FF81917F01882365
S113061009F4ADC1853239F493FD859193FF81913D
S11306207F01853221F4B60190E0D0D1E8CF912C3E
S1130630212C312CFFE1F315D8F08B3279F038F40A
S1130640803279F08332A1F4232D20611DC08D32D4
S113065061F0803369F4232D216016C0832D8260FC
S1130660382EE32DE4603E2E2AC0F32DF8601DC021
S113067037FC2DC020ED280F2A3040F08E32B9F41B
S113068036FC75C1232D2064322E19C036FE06C0F7
S11306908AE0989E200D1124922E11C0EAE02E9E2D
S11306A0200D1124222EF32DF0623F2E08C08C362B
S11306B021F4832D8068382E02C0883641F4F70176
S11306C093FD859193FF81917F018111B3CF982F81
S11306D09F7D9554933028F40C5F1F4F9FE39983BB
S11306E00DC0833631F0833771F0833509F055C07E
S11306F020C0F801808189830E5F1F4F8824839472
S1130700912C530112C02801F2E04F0E511CF80144
S1130710A080B18036FE03C0692D70E002C06FEF87
S11307207FEFC50138D14C018201F32DFF773F2EB5
S113073015C0280122E0420E511CF801A080B180AE
S113074036FE03C0692D70E002C06FEF7FEFC50174
S113075017D14C01F32DF0683F2E820133FC19C0F0
S1130760822D90E088169906A0F4B60180E290E00C
S11307702DD12A94F5CFF50137FC859137FE81916F
S11307805F01B60190E022D121102A9421E0821A5F
S113079091088114910479F7E1C0843611F0893607
S11307A039F5F80137FE07C0608171818281938138
S11307B00C5F1F4F08C060817181072E000C880BED
S11307C0990B0E5F1F4FF32DFF763F2E97FF09C045
S11307D090958095709561957F4F8F4F9F4FF068EE
S11307E03F2E2AE030E0A3012DD1882E861844C084
S11307F0853731F4232D2F7EB22E2AE030E025C038
S1130800932D997FB92E8F36C1F018F4883579F07D
S1130810AEC0803719F0883721F0A9C0E92FE06114
S1130820BE2EB4FE0DC0FB2DF460BF2E09C034FEF5
S11308300AC0292F2660B22E06C028E030E005C089
S113084020E130E002C020E132E0F801B7FE07C049
S113085060817181828193810C5F1F4F06C060812A
S1130860718180E090E00E5F1F4FA301EBD0882ED2
S11308708618FB2DFF773F2E36FE0DC0232D2E7FCD
S1130880A22E891458F434FE0BC032FC09C0832D07
S11308908E7EA82E05C0B82CA32C03C0B82C01C092
S11308A0B92CA4FE0FC0FE01E80DF11D8081803338
S11308B021F49A2D997EA92E09C0A2FE06C0B394F4
S11308C0B39404C08A2D867809F0B394A3FC10C0B5
S11308D0A0FE06C0B21480F4280C922C9B180DC004
S11308E0B21458F4B60180E290E070D0B394F8CF1B
S11308F0B21418F42B1802C0982C212CA4FE0FC09B
S1130900B60180E390E062D0A2FE16C0A1FC03C051
S113091088E790E002C088E590E0B6010CC08A2D1B
S1130920867851F0A1FE02C08BE201C080E2A7FCF0
S11309308DE2B60190E04AD0891430F4B60180E328
S113094090E044D09A94F8CF8A94F301E80DF11D15
S11309508081B60190E03AD08110F6CF222009F4CC
S11309604ECEB60180E290E031D02A94F7CFF60162
S11309708681978102C08FEF9FEF2B96E2E1DCC066
S1130980FC010590615070400110D8F78095909556
S11309908E0F9F1F0895FC0161507040019001105B
S11309A0D8F7809590958E0F9F1F0895DC01FC0168
S11309B0672F71917723E1F7329704C07C916D938F
S11309C070836291AE17BF07C8F308950F931F9306
S11309D0CF93DF93FB01238121FD03C08FEF9FEFB2
S11309E02CC022FF16C046815781248135814217CD
S11309F0530744F4A081B1819D012F5F3F4F3183A0
S1130A0020838C93268137812F5F3F4F3783268342
S1130A1014C08B01EC01FB010084F185E02D0995E4
S1130A20892BE1F6D80116968D919C911797019622
S1130A3017969C938E931697CE01DF91CF911F91B9
S1130A400F910895FA01AA27283051F1203181F13C
S1130A50E8946F936E7F6E5F7F4F8F4F9F4FAF4FC2
S1130A60B1E03ED0B4E03CD0670F781F891F9A1FD5
S1130A70A11D680F791F8A1F911DA11D6A0F711D89
S1130A80811D911DA11D20D009F468943F912AE095
S1130A90269F11243019305D3193DEF6CF0108957D
S1130AA0462F4770405D4193B3E00FD0C9F7F6CFAE
S1130AB0462F4F70405D4A3318F0495D31FD405276
S1130AC0419302D0A9F7EACFB4E0A695979587950C
S1130AD077956795BA95C9F70097610571050895EB
S1130AE09B01AC010A2E0694579547953795279597
S1130AF0BA95C9F7620F731F841F951FA01D08952F
S1130B002F923F924F925F926F927F928F929F9219
S1130B10AF92BF92CF92DF92EF92FF920F931F9307
S1130B20CF93DF93CDB7DEB7CA1BDB0B0FB6F894B8
S1130B30DEBF0FBECDBF09942A88398848885F84F8
S1130B406E847D848C849B84AA84B984C884DF8069
S1130B50EE80FD800C811B81AA81B981CE0FD11D4D
S1130B600FB6F894DEBF0FBECDBFED010895F89423
S1050B70FFCFB1
S1130B724E4F4E4500257325732573257300434C50
S1130B824541520020202020202020202020202007
S1130B922020202020202020200048656C6C6F201B
S1130BA274686572652100446174613A200053746B
S1130BB26174757320726567697374657200456E3A
S1110BC264206F662073657175656E6365004F
S9030000FC
