S01200005457492D6D61737465722E7372656365
S113000033C0000039C0000037C0000035C0000014
S113001033C0000031C000002FC000002DC000001C
S11300202BC0000029C0000027C0000025C000002C
S113003023C0000021C000001FC000001DC000003C
S11300401BC0000019C0000017C0000015C000004C
S113005013C0000011C000000FC000000DC000005C
S11300600BC0000009C0000011241FBECFEFD8E070
S1130070DEBFCDBF58D05CC0C3CF1092B90088E4B6
S11300808093B8000895CF93DF93ECEBF0E024EA7B
S1130090A9EBB0E0CBEBD0E034E844E920839081D5
S11300A09923ECF79C91987F983011F09031B1F737
S11300B08883308390819923ECF79C91987F9032C8
S11300C011F0983529F44083908194FDFDCFE6CF5B
S11300D0DF91CF91089584E98093BC00ECEBF0E0CC
S11300E0808184FDFDCF08958093BB0084E88093D4
S11300F0BC00ECEBF0E080818823ECF79091B90030
S1130100987F81E0983209F480E00895CF93C82F56
S113011087E2B9DF8C2FE8DFDEDFCF91089587E235
S11301208093BA000895A9DFFADF8CE0EFDFFDCFFA
S1070130F894FFCF6D
S9030000FC
