S01200005457492D6D61737465722E7372656365
S113000033C0000039C0000037C0000035C0000014
S113001033C0000031C000002FC000002DC000001C
S11300202BC0000029C0000027C0000025C000002C
S113003023C0000021C000001FC000001DC000003C
S11300401BC0000019C0000017C0000015C000004C
S113005013C0000011C000000FC000000DC000005C
S11300600BC0000009C0000011241FBECFEFD8E070
S1130070DEBFCDBF3FD044C0C3CF1092B90088E4E7
S11300808093B8000895CF93DF93ECEBF0E024EA7B
S1130090A9EBB0E0CBEBD0E034E844E920839081D5
S11300A09923ECF79C91987F983011F09031B1F737
S11300B08883308390819923ECF79C91987F9032C8
S11300C011F0983529F44083908194FDFDCFE6CF5B
S11300D0DF91CF91089584EC8093BC00ECEBF0E0C9
S11300E080818823ECF78091BB00089587E2809398
S11300F0BA000895C2DFFADF88E2C5DFECDFFECF85
S1070100F894FFCF9D
S9030000FC
